## Script of Funding Transaction

<pk_B^1> 0396a4b78bd85494a32e7189cd597fc4d3f6ad4e8cfc76356eec7339bdd0a9efdb
<pk_A^1> 02acbe3bbf4055eb5b75bcbac11e63b871a45a045daacfe18fd9243d4f3dbe7529
<pk_B^2> 034c57150da8b467eec21eba5a4c7403059e044f8863df1c8804eb20a34ee945f6
<pk_A^2> 03de98dc072c2793e9eae43bac361097c8bbd441e03a75d7022a9d6c9a770ef749
- ScriptPubKey: 
    OP_HASH160 <RedeemHash> OP_EQUAL
    a9 <> 87
- RedeemScript: 
    OP_IF
        OP_2 <pk_B^1> <pk_A> OP_2 OP_CHECKMULTISIG
    OP_ELSE
        <T time> OP_CHECKSEQUENCE OP_DROP
        <pk_B^2> OP_CHECKSIG
    OP_ENDIF

    6352210396a4b78bd85494a32e7189cd597fc4d3f6ad4e8cfc76356eec7339bdd0a9efdb2102acbe3bbf4055eb5b75bcbac11e63b871a45a045daacfe18fd9243d4f3dbe752952ae6721034c57150da8b467eec21eba5a4c7403059e044f8863df1c8804eb20a34ee945f6ac68


mpNt1orbhtPMMp5YN9UVKgVmhpZpzzCTEF
03d836aab2a5faf873f8afaec3753a3e9dd6f904497c9d3a4a48da75ffb8ae3407
cQerxCSEJekE9XB4TuxY3nDGtrzkskgdNJoSmeAmyfRxjYvnMDQG

n1oGfH6bfqzU12xjDcT4XcsfQ9Nw1Ridut
02c074d321011e2fe9959bef59db4f1d46cf61869b80f129c05a1566854119257b
cUrpvBPRDPGzgj75MCtQTovqmZDPmm6N7w8X757g3zW2FkBpoTN7

muDQqoGBPZBfrMxWf2EfY1k4PAaJunocCt
037567305b0981409aa7e253483f846548f1028f89ed923efd21ffc1d6b38bd1fb
cQR4K6eSfcU4HQQNa8PPCWRvZXeBQZdzqUJTGMEieHKes3PUNvm4

2MyM9gLKGVa7Hs59C6auBdQVvSShmMWBXgU
522103d836aab2a5faf873f8afaec3753a3e9dd6f904497c9d3a4a48da75ffb8ae34072102c074d321011e2fe9959bef59db4f1d46cf61869b80f129c05a1566854119257b21037567305b0981409aa7e253483f846548f1028f89ed923efd21ffc1d6b38bd1fb53ae

87b87e00a044a8d5121a9b759479f580db5e3d41447535cd621ca348a4c01b87
0200000001871bc0a448a31c62cd357544413d5edb80f57994759b1a12d5a844a0007eb8870000000000ffffffff01406a8b06000000001976a914e5bcb0010cfa0a208606a223ad8ec42e4504596088ac00000000

0200000001871bc0a448a31c62cd357544413d5edb80f57994759b1a12d5a844a0007eb88700000000fdfe0000483045022100be0eed4936d80d9d43d8858570898da2feb98431219ae21ee501f3d0b4dc19e5022045551347f23eb8b9b654ade8336662afc229f3cfbbf0e86a46cad4273719b07a01483045022100f8c005df60eeebd7a637ab0243a96cd354b9e9a1e9ba534713be34a2b05814df02204eeddd15dee349f7e898b5686cecb369bbcd2f28892f9322d045a02063925436014c69522103d836aab2a5faf873f8afaec3753a3e9dd6f904497c9d3a4a48da75ffb8ae34072102c074d321011e2fe9959bef59db4f1d46cf61869b80f129c05a1566854119257b21037567305b0981409aa7e253483f846548f1028f89ed923efd21ffc1d6b38bd1fb53aeffffffff01406a8b06000000001976a914e5bcb0010cfa0a208606a223ad8ec42e4504596088ac00000000

483045022100be0eed4936d80d9d43d8858570898da2feb98431219ae21ee501f3d0b4dc19e5022045551347f23eb8b9b654ade8336662afc229f3cfbbf0e86a46cad4273719b07a01
483045022100f8c005df60eeebd7a637ab0243a96cd354b9e9a1e9ba534713be34a2b05814df02204eeddd15dee349f7e898b5686cecb369bbcd2f28892f9322d045a0206392543601

0200000001871bc0a448a31c62cd357544413d5edb80f57994759b1a12d5a844a0007eb88700000000fdfe0000483045022100be0eed4936d80d9d43d8858570898da2feb98431219ae21ee501f3d0b4dc19e5022045551347f23eb8b9b654ade8336662afc229f3cfbbf0e86a46cad4273719b07a01483045022100f8c005df60eeebd7a637ab0243a96cd354b9e9a1e9ba534713be34a2b05814df02204eeddd15dee349f7e898b5686cecb369bbcd2f28892f9322d045a02063925436014c69522103d836aab2a5faf873f8afaec3753a3e9dd6f904497c9d3a4a48da75ffb8ae34072102c074d321011e2fe9959bef59db4f1d46cf61869b80f129c05a1566854119257b21037567305b0981409aa7e253483f846548f1028f89ed923efd21ffc1d6b38bd1fb53aeffffffff01406a8b06000000001976a914e5bcb0010cfa0a208606a223ad8ec42e4504596088ac00000000