key pair:
moMHSE1cZD2wxufkNtphdeSzpcenSJvAQk
02a0060ddf0c26be657eddf2b23146a869b9f3591e3853f41f3fa431f0082fc811
cVWmtro3acH4rSQVFAPXjo9SNAWKqd9cyJPgcKHdvftzmQ6NEnzK

mi7ekXkYaSBozdTxU6753gHPvJBrdQNV7N
023748130bb04b235410c792899091f30416012fa70e51bf0e6501fccc17babd8b
cQREHCTbQyh4CPxnjA4ivTebSVMHRS94gHCAdm4FQMDgmro9wtDx

mxJctr48Ac3WAWrKBmmKAa9qV1hApnhUhr
0319a444dbe2c83fa1a4da54ba3a4be1857e98ba6785c70600fe4a941f13359603
cR2PXd1JLuENEYmgqnWZkP6LWgLD652kvScD3R4WfJKhUHq3JHDk

2-of-3 address: 2N4QJdqQDm2JPNfT1jA2FXb3mgEJfaGTTwx
2-of-3 redem: 52210319a444dbe2c83fa1a4da54ba3a4be1857e98ba6785c70600fe4a941f1335960321023748130bb04b235410c792899091f30416012fa70e51bf0e6501fccc17babd8b2102a0060ddf0c26be657eddf2b23146a869b9f3591e3853f41f3fa431f0082fc81153ae

in 1: 
createrawtransaction '[{"txid": "dfcca040ea82315ae9ef246d6d4821723086b8dd4706423d75c1bcb63329ae92", "vout": 0}]' '{"2N4QJdqQDm2JPNfT1jA2FXb3mgEJfaGTTwx": 0.89}'
ou 1:
020000000192ae2933b6bcc1753d420647ddb886307221486d6d24efe95a3182ea40a0ccdf0000000000ffffffff0140084e050000000017a9147a6101bb34e78626d04cf558971c1890bfeb24528700000000

in 2: 
signrawtransaction 020000000192ae2933b6bcc1753d420647ddb886307221486d6d24efe95a3182ea40a0ccdf0000000000ffffffff0140084e050000000017a9147a6101bb34e78626d04cf558971c1890bfeb24528700000000
ou 2:
020000000192ae2933b6bcc1753d420647ddb886307221486d6d24efe95a3182ea40a0ccdf000000006a4730440220356eb328cabe0e3406b27efdfb6262cc1f768bc26a03aa6705dc4a061c0e262c022040579a6b93e71c24fde91eddba8bc0c151611bf14eefa29bfd2faffa2aaee12b012102a0060ddf0c26be657eddf2b23146a869b9f3591e3853f41f3fa431f0082fc811ffffffff0140084e050000000017a9147a6101bb34e78626d04cf558971c1890bfeb24528700000000

in 3: 
decoderawtransaction 020000000192ae2933b6bcc1753d420647ddb886307221486d6d24efe95a3182ea40a0ccdf000000006a4730440220356eb328cabe0e3406b27efdfb6262cc1f768bc26a03aa6705dc4a061c0e262c022040579a6b93e71c24fde91eddba8bc0c151611bf14eefa29bfd2faffa2aaee12b012102a0060ddf0c26be657eddf2b23146a869b9f3591e3853f41f3fa431f0082fc811ffffffff0140084e050000000017a9147a6101bb34e78626d04cf558971c1890bfeb24528700000000
ou 3:
{
  "txid": "96a6d1802f02f0c5ef261af3fdea647fe202fdd32b1f71f3b593e5140710093f",
  "hash": "96a6d1802f02f0c5ef261af3fdea647fe202fdd32b1f71f3b593e5140710093f",
  "size": 189,
  "vsize": 189,
  "version": 2,
  "locktime": 0,
  "vin": [
    {
      "txid": "dfcca040ea82315ae9ef246d6d4821723086b8dd4706423d75c1bcb63329ae92",
      "vout": 0,
      "scriptSig": {
        "asm": "30440220356eb328cabe0e3406b27efdfb6262cc1f768bc26a03aa6705dc4a061c0e262c022040579a6b93e71c24fde91eddba8bc0c151611bf14eefa29bfd2faffa2aaee12b[ALL] 02a0060ddf0c26be657eddf2b23146a869b9f3591e3853f41f3fa431f0082fc811",
        "hex": "4730440220356eb328cabe0e3406b27efdfb6262cc1f768bc26a03aa6705dc4a061c0e262c022040579a6b93e71c24fde91eddba8bc0c151611bf14eefa29bfd2faffa2aaee12b012102a0060ddf0c26be657eddf2b23146a869b9f3591e3853f41f3fa431f0082fc811"
      },
      "sequence": 4294967295
    }
  ],
  "vout": [
    {
      "value": 0.89000000,
      "n": 0,
      "scriptPubKey": {
        "asm": "OP_HASH160 7a6101bb34e78626d04cf558971c1890bfeb2452 OP_EQUAL",
        "hex": "a9147a6101bb34e78626d04cf558971c1890bfeb245287",
        "reqSigs": 1,
        "type": "scripthash",
        "addresses": [
          "2N4QJdqQDm2JPNfT1jA2FXb3mgEJfaGTTwx"
        ]
      }
    }
  ]
}

in 4:
createrawtransaction '[{"txid" : "96a6d1802f02f0c5ef261af3fdea647fe202fdd32b1f71f3b593e5140710093f","vout":0}]' '{"moMHSE1cZD2wxufkNtphdeSzpcenSJvAQk":0.88}'
ou 4:
02000000013f09100714e593b5f3711f2bd3fd02e27f64eafdf31a26efc5f0022f80d1a6960000000000ffffffff0100c63e05000000001976a91455ecd31c9db6b1f3921a550f7d64a61872f6ccc488ac00000000

in 5:
signrawtransaction '02000000013f09100714e593b5f3711f2bd3fd02e27f64eafdf31a26efc5f0022f80d1a6960000000000ffffffff0100c63e05000000001976a91455ecd31c9db6b1f3921a550f7d64a61872f6ccc488ac00000000' '[{"txid": "96a6d1802f02f0c5ef261af3fdea647fe202fdd32b1f71f3b593e5140710093f", "vout": 0, "scriptPubKey": "a9147a6101bb34e78626d04cf558971c1890bfeb245287", "redeemScript": "52210319a444dbe2c83fa1a4da54ba3a4be1857e98ba6785c70600fe4a941f1335960321023748130bb04b235410c792899091f30416012fa70e51bf0e6501fccc17babd8b2102a0060ddf0c26be657eddf2b23146a869b9f3591e3853f41f3fa431f0082fc81153ae"}]' '["cQREHCTbQyh4CPxnjA4ivTebSVMHRS94gHCAdm4FQMDgmro9wtDx"]'
ou 5:
02000000013f09100714e593b5f3711f2bd3fd02e27f64eafdf31a26efc5f0022f80d1a69600000000b5004830450221009bc41ca5a5b70515b469035f9400371d2b746c7b59775824c2799c68c6465457022050772abe3562d77b07f846839ee189a7be07d54c2b907022bae2d8e822fedd08014c6952210319a444dbe2c83fa1a4da54ba3a4be1857e98ba6785c70600fe4a941f1335960321023748130bb04b235410c792899091f30416012fa70e51bf0e6501fccc17babd8b2102a0060ddf0c26be657eddf2b23146a869b9f3591e3853f41f3fa431f0082fc81153aeffffffff0100c63e05000000001976a91455ecd31c9db6b1f3921a550f7d64a61872f6ccc488ac00000000

in 6:
signrawtransaction '02000000013f09100714e593b5f3711f2bd3fd02e27f64eafdf31a26efc5f0022f80d1a69600000000b5004830450221009bc41ca5a5b70515b469035f9400371d2b746c7b59775824c2799c68c6465457022050772abe3562d77b07f846839ee189a7be07d54c2b907022bae2d8e822fedd08014c6952210319a444dbe2c83fa1a4da54ba3a4be1857e98ba6785c70600fe4a941f1335960321023748130bb04b235410c792899091f30416012fa70e51bf0e6501fccc17babd8b2102a0060ddf0c26be657eddf2b23146a869b9f3591e3853f41f3fa431f0082fc81153aeffffffff0100c63e05000000001976a91455ecd31c9db6b1f3921a550f7d64a61872f6ccc488ac00000000' '[{"txid": "96a6d1802f02f0c5ef261af3fdea647fe202fdd32b1f71f3b593e5140710093f", "vout": 0, "scriptPubKey": "a9147a6101bb34e78626d04cf558971c1890bfeb245287", "redeemScript": "52210319a444dbe2c83fa1a4da54ba3a4be1857e98ba6785c70600fe4a941f1335960321023748130bb04b235410c792899091f30416012fa70e51bf0e6501fccc17babd8b2102a0060ddf0c26be657eddf2b23146a869b9f3591e3853f41f3fa431f0082fc81153ae"}]' '["cR2PXd1JLuENEYmgqnWZkP6LWgLD652kvScD3R4WfJKhUHq3JHDk"]'
ou 6:
02000000013f09100714e593b5f3711f2bd3fd02e27f64eafdf31a26efc5f0022f80d1a69600000000fdfe0000483045022100b59d242af76d432a540651c50b8701a0045d6e111fbdbd8e32504925f82b97150220455b147fd75c06c8050b2091feee187627f0121ae28da2410e1f8096075766b0014830450221009bc41ca5a5b70515b469035f9400371d2b746c7b59775824c2799c68c6465457022050772abe3562d77b07f846839ee189a7be07d54c2b907022bae2d8e822fedd08014c6952210319a444dbe2c83fa1a4da54ba3a4be1857e98ba6785c70600fe4a941f1335960321023748130bb04b235410c792899091f30416012fa70e51bf0e6501fccc17babd8b2102a0060ddf0c26be657eddf2b23146a869b9f3591e3853f41f3fa431f0082fc81153aeffffffff0100c63e05000000001976a91455ecd31c9db6b1f3921a550f7d64a61872f6ccc488ac00000000

