
## Transaction One

### input

txid = "edf4b47202972dc26dcc20861f65648a8ce6870fa1f2e11782bdb8540d2fe558"
vout = 0

### output

value = 0.22420000
pubkey = "02a0060ddf0c26be657eddf2b23146a869b9f3591e3853f41f3fa431f0082fc811"
    privkey: "cVWmtro3acH4rSQVFAPXjo9SNAWKqd9cyJPgcKHdvftzmQ6NEnzK"
    address: "moMHSE1cZD2wxufkNtphdeSzpcenSJvAQk"
redem = "512102a0060ddf0c26be657eddf2b23146a869b9f3591e3853f41f3fa431f0082fc81151ae"
address = "2MvESEyNr5DQ976DuWHYYJ4BAJWDFUkmN2t"
scriptPubKey = {"asm": "", "hex": "a91420c2309cd2fcdbbc6bd704465cdc82185bcfa35087"}

### signature for the input

privkey = "cPrG9uDNDPN6FU6WuFzopNwauWxHY4bt6LUjQLEMGjHn5UsG79ip"
pubkey = "025d37fe014e50a5126e9ddff1cbf1ddf98c06b9f5a5af5cd96028341d8959afa9"
address = "mjyxrFP5HM2H9vvkJkEHGip6qbJ9cXpDYo"

## Transaction Two (subtransaction)

### input

txid = "c68b824392d8f7883a261027c94419776f7fd78e33ec1e01fb057a785713480a"
vout = 0

### output

value = 0.22320000
pubkey = "023748130bb04b235410c792899091f30416012fa70e51bf0e6501fccc17babd8b"
    privkey: "cQREHCTbQyh4CPxnjA4ivTebSVMHRS94gHCAdm4FQMDgmro9wtDx"
    address: "mi7ekXkYaSBozdTxU6753gHPvJBrdQNV7N"
redem = "5121023748130bb04b235410c792899091f30416012fa70e51bf0e6501fccc17babd8b51ae"
address = "2NFavWYMF2SYqzCLghkRLP9ETPSfQQDvq9B"
scriptPubKey = {"asm": "", "hex": "a914f50c7f0e3d3d1a11e7caece8961299a755413d1087"}


##signature for the input

privkey = "cVWmtro3acH4rSQVFAPXjo9SNAWKqd9cyJPgcKHdvftzmQ6NEnzK"
pubkey = "02a0060ddf0c26be657eddf2b23146a869b9f3591e3853f41f3fa431f0082fc811"
address = "moMHSE1cZD2wxufkNtphdeSzpcenSJvAQk"

order: 
    signrawtransaction '02000000010a481357787a05fb011eec338ed77f6f771944c92710263a88f7d89243828bc60000000000ffffffff01809354010000000017a914f50c7f0e3d3d1a11e7caece8961299a755413d108700000000' '[{"txid": "c68b824392d8f7883a261027c94419776f7fd78e33ec1e01fb057a785713480a", "vout":0, "scriptPubKey":"a91420c2309cd2fcdbbc6bd704465cdc82185bcfa35087", "redeemScript": "512102a0060ddf0c26be657eddf2b23146a869b9f3591e3853f41f3fa431f0082fc81151ae"}]' '["cVWmtro3acH4rSQVFAPXjo9SNAWKqd9cyJPgcKHdvftzmQ6NEnzK"]'

right:
    02000000010a481357787a05fb011eec338ed77f6f771944c92710263a88f7d89243828bc600000000
    '''
    7000483045022100e744b62611661d921e658a4d8dfcb40e7ca21c6ffd3693a949309950c11a6e0b02204fec33a8a3b49ab1feca012fc36f1ca1886c6c5b8b12c59d10561f76cfdca76a01
    '''
    25512102a0060ddf0c26be657eddf2b23146a869b9f3591e3853f41f3fa431f0082fc81151aeffffffff01809354010000000017a914f50c7f0e3d3d1a11e7caece8961299a755413d108700000000
mine:
    02000000010a481357787a05fb011eec338ed77f6f771944c92710263a88f7d89243828bc600000000
    '''
    6f00473044022003181e05ffa99ee95fd4a7624eb912f8364e7a7512b4308dea167a1d3d33736202203157bd7e36eac859ada814c90f326666dd635e895ed17c028c4a62aabc5fdc3201
    '''
    25512102a0060ddf0c26be657eddf2b23146a869b9f3591e3853f41f3fa431f0082fc81151aeffffffff01809354010000000017a914f50c7f0e3d3d1a11e7caece8961299a755413d108700000000